{
  "_format": "hh3-artifact-1",
  "contractName": "ChitChainFactory",
  "sourceName": "contracts/ChitChainFactory.sol",
  "abi": [
    {
      "inputs": [
        {
          "internalType": "address",
          "name": "_entropy",
          "type": "address"
        }
      ],
      "stateMutability": "nonpayable",
      "type": "constructor"
    },
    {
      "anonymous": false,
      "inputs": [
        {
          "indexed": true,
          "internalType": "address",
          "name": "previousOwner",
          "type": "address"
        },
        {
          "indexed": true,
          "internalType": "address",
          "name": "newOwner",
          "type": "address"
        }
      ],
      "name": "OwnershipTransferred",
      "type": "event"
    },
    {
      "anonymous": false,
      "inputs": [
        {
          "indexed": true,
          "internalType": "address",
          "name": "scheme",
          "type": "address"
        },
        {
          "indexed": true,
          "internalType": "address",
          "name": "deployer",
          "type": "address"
        }
      ],
      "name": "SchemeDeployed",
      "type": "event"
    },
    {
      "inputs": [],
      "name": "deployChitChain",
      "outputs": [
        {
          "internalType": "address",
          "name": "",
          "type": "address"
        }
      ],
      "stateMutability": "nonpayable",
      "type": "function"
    },
    {
      "inputs": [
        {
          "internalType": "uint256",
          "name": "",
          "type": "uint256"
        }
      ],
      "name": "deployedSchemes",
      "outputs": [
        {
          "internalType": "address",
          "name": "",
          "type": "address"
        }
      ],
      "stateMutability": "view",
      "type": "function"
    },
    {
      "inputs": [],
      "name": "entropyAddress",
      "outputs": [
        {
          "internalType": "address",
          "name": "",
          "type": "address"
        }
      ],
      "stateMutability": "view",
      "type": "function"
    },
    {
      "inputs": [],
      "name": "getDeployedSchemes",
      "outputs": [
        {
          "internalType": "address[]",
          "name": "",
          "type": "address[]"
        }
      ],
      "stateMutability": "view",
      "type": "function"
    },
    {
      "inputs": [
        {
          "internalType": "address",
          "name": "",
          "type": "address"
        }
      ],
      "name": "isValidScheme",
      "outputs": [
        {
          "internalType": "bool",
          "name": "",
          "type": "bool"
        }
      ],
      "stateMutability": "view",
      "type": "function"
    },
    {
      "inputs": [],
      "name": "owner",
      "outputs": [
        {
          "internalType": "address",
          "name": "",
          "type": "address"
        }
      ],
      "stateMutability": "view",
      "type": "function"
    },
    {
      "inputs": [],
      "name": "renounceOwnership",
      "outputs": [],
      "stateMutability": "nonpayable",
      "type": "function"
    },
    {
      "inputs": [
        {
          "internalType": "address",
          "name": "newOwner",
          "type": "address"
        }
      ],
      "name": "transferOwnership",
      "outputs": [],
      "stateMutability": "nonpayable",
      "type": "function"
    }
  ],
  "bytecode": "0x60a060405234801561000f575f5ffd5b506040516131a63803806131a683398101604081905261002e91610097565b61003733610048565b6001600160a01b03166080526100c4565b5f80546001600160a01b038381166001600160a01b0319831681178455604051919092169283917f8be0079c531659141344cd1fd0a4f28419497f9722a3daafe3b4186f6b6457e09190a35050565b5f602082840312156100a7575f5ffd5b81516001600160a01b03811681146100bd575f5ffd5b9392505050565b6080516130c46100e25f395f818160be015261019b01526130c45ff3fe608060405234801561000f575f5ffd5b5060043610610085575f3560e01c80638da5cb5b116100585780638da5cb5b146100f2578063accda9cb14610102578063f2fde38b14610134578063f669a10d14610147575f5ffd5b80632e2a25e3146100895780634bb7b599146100b9578063715018a6146100e05780638d2a09b2146100ea575b5f5ffd5b61009c61009736600461046a565b61015c565b6040516001600160a01b0390911681526020015b60405180910390f35b61009c7f000000000000000000000000000000000000000000000000000000000000000081565b6100e8610184565b005b61009c610197565b5f546001600160a01b031661009c565b610124610110366004610481565b60026020525f908152604090205460ff1681565b60405190151581526020016100b0565b6100e8610142366004610481565b6102d7565b61014f610355565b6040516100b091906104ae565b6001818154811061016b575f80fd5b5f918252602090912001546001600160a01b0316905081565b61018c6103b5565b6101955f61040e565b565b5f5f7f00000000000000000000000000000000000000000000000000000000000000006040516101c69061045d565b6001600160a01b039091168152602001604051809103905ff0801580156101ef573d5f5f3e3d5ffd5b5060405163f2fde38b60e01b81523360048201529091506001600160a01b0382169063f2fde38b906024015f604051808303815f87803b158015610231575f5ffd5b505af1158015610243573d5f5f3e3d5ffd5b50506001805480820182557fb10e2d527612073b26eecdfd717e6a320cf44b4afac2b0732d9fcbe2b7fa0cf60180546001600160a01b0319166001600160a01b0386169081179091555f81815260026020526040808220805460ff191690941790935591513394509092507f57303ce214cdcf499137e17d9539948812a55b92511d25b47e8a00cb722e16099190a3919050565b6102df6103b5565b6001600160a01b0381166103495760405162461bcd60e51b815260206004820152602660248201527f4f776e61626c653a206e6577206f776e657220697320746865207a65726f206160448201526564647265737360d01b60648201526084015b60405180910390fd5b6103528161040e565b50565b606060018054806020026020016040519081016040528092919081815260200182805480156103ab57602002820191905f5260205f20905b81546001600160a01b0316815260019091019060200180831161038d575b5050505050905090565b5f546001600160a01b031633146101955760405162461bcd60e51b815260206004820181905260248201527f4f776e61626c653a2063616c6c6572206973206e6f7420746865206f776e65726044820152606401610340565b5f80546001600160a01b038381166001600160a01b0319831681178455604051919092169283917f8be0079c531659141344cd1fd0a4f28419497f9722a3daafe3b4186f6b6457e09190a35050565b612b95806104fa83390190565b5f6020828403121561047a575f5ffd5b5035919050565b5f60208284031215610491575f5ffd5b81356001600160a01b03811681146104a7575f5ffd5b9392505050565b602080825282518282018190525f918401906040840190835b818110156104ee5783516001600160a01b03168352602093840193909201916001016104c7565b50909594505050505056fe608060405234801561000f575f5ffd5b50604051612b95380380612b9583398101604081905261002e916100c2565b60015f5561003b33610071565b6001805460ff60a01b19168155600280546001600160a01b0319166001600160a01b0393909316929092179091556003556100ef565b600180546001600160a01b038381166001600160a01b0319831681179093556040519116919082907f8be0079c531659141344cd1fd0a4f28419497f9722a3daafe3b4186f6b6457e0905f90a35050565b5f602082840312156100d2575f5ffd5b81516001600160a01b03811681146100e8575f5ffd5b9392505050565b612a99806100fc5f395ff3fe6080604052600436106101de575f3560e01c8063987ee156116100fd578063c9f6060311610092578063e9ac9d1e11610062578063e9ac9d1e14610630578063eadf64ce146106cb578063f2fde38b146106ea578063fb65fc7214610709575f5ffd5b8063c9f60603146105ae578063db2e21bc146105da578063dc75ba89146105ee578063e35bb0fc14610604575f5ffd5b8063a87430ba116100cd578063a87430ba146104eb578063b1f7c7e014610551578063bb52085e14610566578063c1cbbca71461059b575f5ffd5b8063987ee156146103dd578063a809ae60146102e1578063a833656a14610409578063a85eeda714610435575f5ffd5b806368186d4c116101735780637be2ecea116101435780637be2ecea146103585780637fdfd609146103775780638456cb59146103a25780638da5cb5b146103b6575f5ffd5b806368186d4c146102e157806370b943e614610305578063715018a61461031957806379da624d1461032d575f5ffd5b80634d3820eb116101ae5780634d3820eb1461026657806352a5f1f81461027a57806357c90de5146102995780635c975abb146102b8575f5ffd5b80633d10a96b146101e95780633f4ba83a1461021e578063464968d5146102345780634c524be414610253575f5ffd5b366101e557005b5f5ffd5b3480156101f4575f5ffd5b506102086102033660046123b8565b61071d565b60405161021591906123cf565b60405180910390f35b348015610229575f5ffd5b50610232610789565b005b34801561023f575f5ffd5b5061023261024e3660046123b8565b61079b565b6102326102613660046123b8565b610937565b348015610271575f5ffd5b50610232610d8f565b348015610285575f5ffd5b50610232610294366004612443565b610e24565b3480156102a4575f5ffd5b506102326102b3366004612481565b610f04565b3480156102c3575f5ffd5b50600154600160a01b900460ff166040519015158152602001610215565b3480156102ec575f5ffd5b506102f76206978081565b604051908152602001610215565b348015610310575f5ffd5b506102f7604b81565b348015610324575f5ffd5b50610232611109565b348015610338575f5ffd5b506102f76103473660046124a1565b60086020525f908152604090205481565b348015610363575f5ffd5b506102326103723660046123b8565b61111a565b348015610382575f5ffd5b506102f76103913660046124a1565b60076020525f908152604090205481565b3480156103ad575f5ffd5b506102326112ff565b3480156103c1575f5ffd5b506001546040516001600160a01b039091168152602001610215565b3480156103e8575f5ffd5b506103fc6103f73660046124c3565b61130f565b60405161021591906124de565b348015610414575f5ffd5b5061041d6113e5565b6040516001600160801b039091168152602001610215565b348015610440575f5ffd5b506104a661044f366004612481565b600560209081525f928352604080842090915290825290208054600182015460088301546009840154600a90940154929391926001600160a01b03909116919060ff811690610100900467ffffffffffffffff1686565b6040805196875260208701959095526001600160a01b03909316938501939093526060840152901515608083015267ffffffffffffffff1660a082015260c001610215565b3480156104f6575f5ffd5b5061052f6105053660046124c3565b60066020525f9081526040902080546002820154600383015460049093015460ff90921692909184565b6040805194151585526020850193909352918301526060820152608001610215565b34801561055c575f5ffd5b506102f760035481565b348015610571575f5ffd5b506105856105803660046123b8565b6114c3565b6040516102159a9998979695949392919061258a565b6102326105a93660046123b8565b6115a6565b3480156105b9575f5ffd5b506105cd6105c83660046123b8565b61180f565b60405161021591906125f0565b3480156105e5575f5ffd5b5061023261190a565b3480156105f9575f5ffd5b506102f762278d0081565b34801561060f575f5ffd5b5061062361061e3660046123b8565b611948565b6040516102159190612645565b34801561063b575f5ffd5b5061069361064a366004612481565b5f91825260056020908152604080842092845291905290208054600182015460088301546009840154600a90940154929491936001600160a01b0390911692909160ff90911690565b6040805195865260208601949094526001600160a01b039092169284019290925260608301919091521515608082015260a001610215565b3480156106d6575f5ffd5b506102f76106e536600461271c565b611b23565b3480156106f5575f5ffd5b506102326107043660046124c3565b611d4a565b348015610714575f5ffd5b506102f7600581565b5f8181526004602090815260409182902060070180548351818402810184019094528084526060939283018282801561077d57602002820191905f5260205f20905b81546001600160a01b0316815260019091019060200180831161075f575b50505050509050919050565b610791611dc0565b610799611e1a565b565b6107a3611e6f565b335f9081526006602052604090205460ff166107fb5760405162461bcd60e51b8152602060048201526012602482015271135d5cdd081899481c9959da5cdd195c995960721b60448201526064015b60405180910390fd5b5f818152600460205260409020600881015460ff1661082d57604051632505346960e21b815260040160405180910390fd5b600681015460078201541061085557604051632962ac5560e21b815260040160405180910390fd5b5f5b60078201548110156108bc57336001600160a01b0316826007018281548110610882576108826127e2565b5f918252602090912001546001600160a01b0316036108b4576040516340803a5f60e11b815260040160405180910390fd5b600101610857565b50600781018054600181810183555f928352602080842090920180546001600160a01b0319163390811790915580845260068352604080852083018054938401815585529284209091018590559051909184917f18e27a26521a5febd8b7d6c045d870e40fd2a85410c7d7e35aecd61643d841de9190a35050565b61093f611ebc565b610947611e6f565b5f818152600460205260409020600881015460ff1661097957604051632505346960e21b815260040160405180910390fd5b80600501545f0361099c5760405162461bcd60e51b81526004016107f2906127f6565b5f828152600560208181526040808420928501548452919052812060038101549091036109dc57604051631014cd3f60e31b815260040160405180910390fd5b60088101546001600160a01b031615610a0857604051639733a2b560e01b815260040160405180910390fd5b600a82015462069780610a1b8183612833565b610a259190612833565b4211610a735760405162461bcd60e51b815260206004820152601860248201527f42696464696e6720706572696f64206e6f7420656e646564000000000000000060448201526064016107f2565b600254604080516320bba64360e21b815290515f926001600160a01b03169163b88c91489183916382ee990c9160048083019260209291908290030181865afa158015610ac2573d5f5f3e3d5ffd5b505050506040513d601f19601f82011682018060405250810190610ae6919061284c565b6040516001600160e01b031960e084901b1681526001600160a01b039091166004820152602401602060405180830381865afa158015610b28573d5f5f3e3d5ffd5b505050506040513d601f19601f82011682018060405250810190610b4c9190612867565b9050806001600160801b0316341015610b7857604051631e9acf1760e31b815260040160405180910390fd5b60058401546040805142602082015290810187905260608101919091525f9060800160408051601f1981840301815282825280516020918201206002546320bba64360e21b855292519094505f936001600160a01b03909316926319cb825f926001600160801b0388169285926382ee990c9260048083019391928290030181865afa158015610c0a573d5f5f3e3d5ffd5b505050506040513d601f19601f82011682018060405250810190610c2e919061284c565b6040516001600160e01b031960e085901b1681526001600160a01b0390911660048201526024810186905260440160206040518083038185885af1158015610c78573d5f5f3e3d5ffd5b50505050506040513d601f19601f82011682018060405250810190610c9d919061288d565b600a8601805468ffffffffffffffff00191661010067ffffffffffffffff8416908102919091179091555f9081526007602090815260408083208b905560058a015460089092529091205590506001600160801b038316341115610d3957336108fc610d126001600160801b038616346128a8565b6040518115909202915f818181858888f19350505050158015610d37573d5f5f3e3d5ffd5b505b600586015460405167ffffffffffffffff8316815288907f3b7e2f5e18c3543f518f8e318bb6768530bc92fe02ce090e853a647762aeaaf29060200160405180910390a3505050505050610d8c60015f55565b50565b335f9081526006602052604090205460ff1615610de35760405162461bcd60e51b8152602060048201526012602482015271105b1c9958591e481c9959da5cdd195c995960721b60448201526064016107f2565b335f81815260066020526040808220805460ff19166001179055517f54db7a5cb4735e1aac1f53db512d3390390bb6637bd30ad4bf9fc98667d9b9b99190a2565b5f610e376002546001600160a01b031690565b90506001600160a01b038116610e8f5760405162461bcd60e51b815260206004820152601760248201527f456e74726f70792061646472657373206e6f742073657400000000000000000060448201526064016107f2565b336001600160a01b03821614610ef35760405162461bcd60e51b815260206004820152602360248201527f4f6e6c7920456e74726f70792063616e2063616c6c20746869732066756e637460448201526234b7b760e91b60648201526084016107f2565b610efe848484611f13565b50505050565b610f0c611e6f565b5f828152600460205260409020600881015460ff16610f3e57604051632505346960e21b815260040160405180910390fd5b80600501545f03610f615760405162461bcd60e51b81526004016107f2906127f6565b5f8381526005602081815260408084209285015484529181528183203384526006810190915291205460ff16610faa576040516315a05e7360e21b815260040160405180910390fd5b335f90815260078201602052604090205460ff1615610fdc57604051630697833b60e11b815260040160405180910390fd5b600a820154610fee6206978082612833565b421115806110125750620697806110058183612833565b61100f9190612833565b42115b1561103057604051632d7a45db60e01b815260040160405180910390fd5b5f6064604b845f015461104391906128bb565b61104d91906128e6565b90508085108061105d5750825485115b1561107b57604051635069375b60e11b815260040160405180910390fd5b335f8181526007850160209081526040808320805460ff19166001908117909155600580890184528285208b905560038901805492830181558552938390200180546001600160a01b0319168517905591870154915188815289917f6f7e354ea3ab5c288aea37fce29c603f9a98a3b040f6d8f32f10e192ec47ff6a910160405180910390a4505050505050565b611111611dc0565b6107995f6120b4565b611122611e6f565b5f818152600460205260409020600881015460ff1661115457604051632505346960e21b815260040160405180910390fd5b6007810154600211156111a95760405162461bcd60e51b815260206004820152601760248201527f4e656564206174206c656173742032206d656d6265727300000000000000000060448201526064016107f2565b80600501545f036111c5576001600582015542600a8201555050565b62278d0081600a01546111d89190612833565b4210156112275760405162461bcd60e51b815260206004820152601b60248201527f43757272656e74206379636c65206e6f7420636f6d706c65746564000000000060448201526064016107f2565b5f8281526005602081815260408084209285015484529190529020600a015460ff166112955760405162461bcd60e51b815260206004820152601c60248201527f50726576696f7573206379636c65206e6f7420636f6d706c657465640000000060448201526064016107f2565b600581018054905f6112a6836128f9565b909155505042600a8201556004810154600582015411156112fb5760088101805460ff1916905560405182907f74dd58821ab807304fb81d9a85e8d31c83e066ea9453cc72f7bccf24c05924e2905f90a25050565b5050565b611307611dc0565b610799612105565b61133f6040518060a001604052805f15158152602001606081526020015f81526020015f81526020015f81525090565b6001600160a01b0382165f90815260066020908152604091829020825160a081018452815460ff1615158152600182018054855181860281018601909652808652919492938581019392908301828280156113b757602002820191905f5260205f20905b8154815260200190600101908083116113a3575b5050505050815260200160028201548152602001600382015481526020016004820154815250509050919050565b600254604080516320bba64360e21b815290515f926001600160a01b03169163b88c91489183916382ee990c9160048083019260209291908290030181865afa158015611434573d5f5f3e3d5ffd5b505050506040513d601f19601f82011682018060405250810190611458919061284c565b6040516001600160e01b031960e084901b1681526001600160a01b039091166004820152602401602060405180830381865afa15801561149a573d5f5f3e3d5ffd5b505050506040513d601f19601f820116820180604052508101906114be9190612867565b905090565b60046020525f908152604090208054600182015460028301805492936001600160a01b03909216926114f490612911565b80601f016020809104026020016040519081016040528092919081815260200182805461152090612911565b801561156b5780601f106115425761010080835404028352916020019161156b565b820191905f5260205f20905b81548152906001019060200180831161154e57829003601f168201915b505050600384015460048501546005860154600687015460088801546009890154600a90990154979894979396509194509260ff909116918a565b6115ae611ebc565b6115b6611e6f565b5f818152600460205260409020600881015460ff166115e857604051632505346960e21b815260040160405180910390fd5b5f805b600783015481101561164057336001600160a01b0316836007018281548110611616576116166127e2565b5f918252602090912001546001600160a01b0316036116385760019150611640565b6001016115eb565b508061165f57604051630941e4f160e31b815260040160405180910390fd5b816003015434146116835760405163162908e360e11b815260040160405180910390fd5b81600501545f036116a65760405162461bcd60e51b81526004016107f2906127f6565b600a8201546116b86206978082612833565b4211156116d8576040516303ffe7fd60e21b815260040160405180910390fd5b5f8481526005602081815260408084209287015484529181528183203384526006810190915291205460ff1615611722576040516305d252c360e01b815260040160405180910390fd5b335f8181526006830160209081526040808320805460ff191660019081179091556004860183529083203490819055600286018054928301815584529183200180546001600160a01b0319169093179092558254839190611784908490612833565b9091555050600181018054905f61179a836128f9565b9091555050335f90815260066020526040812060030180543492906117c0908490612833565b9091555050600584015460405134815233919087907f11bfe06cab306870bd20ccf0ba9baecc5275f39c28419943f429294cb04580a19060200160405180910390a450505050610d8c60015f55565b5f81815260046020526040902060088101546060919060ff16158061183657506005810154155b15611861575050604080518082019091526008815267494e41435449564560c01b6020820152919050565b5f81600a01544261187291906128a8565b90506206978081116118a957505060408051808201909152600c81526b21a7a72a2924a12aaa24a7a760a11b602082015292915050565b6118b66206978080612833565b81116118e257505060408051808201909152600781526642494444494e4760c81b602082015292915050565b505060408051808201909152600981526829a2a622a1aa24a7a760b91b602082015292915050565b611912611dc0565b6001546040516001600160a01b03909116904780156108fc02915f818181858888f19350505050158015610d8c573d5f5f3e3d5ffd5b6119a76040518061016001604052805f81526020015f6001600160a01b03168152602001606081526020015f81526020015f81526020015f81526020015f8152602001606081526020015f151581526020015f81526020015f81525090565b5f828152600460209081526040918290208251610160810184528154815260018201546001600160a01b03169281019290925260028101805492939192918401916119f190612911565b80601f0160208091040260200160405190810160405280929190818152602001828054611a1d90612911565b8015611a685780601f10611a3f57610100808354040283529160200191611a68565b820191905f5260205f20905b815481529060010190602001808311611a4b57829003601f168201915b505050505081526020016003820154815260200160048201548152602001600582015481526020016006820154815260200160078201805480602002602001604051908101604052809291908181526020018280548015611af057602002820191905f5260205f20905b81546001600160a01b03168152600190910190602001808311611ad2575b5050509183525050600882015460ff161515602082015260098201546040820152600a9091015460609091015292915050565b5f611b2c611e6f565b335f9081526006602052604090205460ff16611b7f5760405162461bcd60e51b8152602060048201526012602482015271135d5cdd081899481c9959da5cdd195c995960721b60448201526064016107f2565b835f03611b9f5760405163162908e360e11b815260040160405180910390fd5b821580611bac5750603c83115b15611bef5760405162461bcd60e51b8152602060048201526013602482015272125b9d985b1a590818de58db194818dbdd5b9d606a1b60448201526064016107f2565b6002821080611bfe5750606482115b15611c425760405162461bcd60e51b8152602060048201526014602482015273125b9d985b1a59081b595b58995c8818dbdd5b9d60621b60448201526064016107f2565b600380545f9182611c52836128f9565b909155505f8181526004602052604090208181556001810180546001600160a01b0319163317905590915060028101611c8b8882612995565b5060038101869055600481018590555f60058201819055600680830186905560088301805460ff191660019081179091554260098501556007840180548083018255908452602080852090910180546001600160a01b0319163390811790915580855292815260408085208301805493840181558552932001849055905183907f161c1aa2dd55ac91a8cb2aa78c1d94cfbe9ce9cf1d4a7642ca663c24c24b82d290611d38908b906125f0565b60405180910390a35095945050505050565b611d52611dc0565b6001600160a01b038116611db75760405162461bcd60e51b815260206004820152602660248201527f4f776e61626c653a206e6577206f776e657220697320746865207a65726f206160448201526564647265737360d01b60648201526084016107f2565b610d8c816120b4565b6001546001600160a01b031633146107995760405162461bcd60e51b815260206004820181905260248201527f4f776e61626c653a2063616c6c6572206973206e6f7420746865206f776e657260448201526064016107f2565b611e22612148565b6001805460ff60a01b191690557f5db9ee0a495bf2e6ff9c91a7834c1ba4fdd244a5e8aa4e537bd38aeae4b073aa335b6040516001600160a01b03909116815260200160405180910390a1565b600154600160a01b900460ff16156107995760405162461bcd60e51b815260206004820152601060248201526f14185d5cd8589b194e881c185d5cd95960821b60448201526064016107f2565b60025f5403611f0d5760405162461bcd60e51b815260206004820152601f60248201527f5265656e7472616e637947756172643a207265656e7472616e742063616c6c0060448201526064016107f2565b60025f55565b67ffffffffffffffff83165f908152600760209081526040808320546008835281842054818552600584528285208186529093529083206003810154919390919003611f7257604051631014cd3f60e31b815260040160405180910390fd5b60088101546001600160a01b031615611f9e57604051639733a2b560e01b815260040160405180910390fd5b60038101545f90611faf9086612a50565b90505f826003018281548110611fc757611fc76127e2565b5f9182526020808320909101546001600160a01b03168083526005860182526040808420546008880180546001600160a01b03191684179055600988018190556006909352832060040180549194509192909190612024836128f9565b90915550506001600160a01b0382165f9081526006602052604081206002018054839290612053908490612833565b92505081905550816001600160a01b031685877fb8639d96359347ee9c2450fb169ec40a1539570d38bca935b1e2a6fed3e694e48460405161209791815260200190565b60405180910390a46120a98686612198565b505050505050505050565b600180546001600160a01b038381166001600160a01b0319831681179093556040519116919082907f8be0079c531659141344cd1fd0a4f28419497f9722a3daafe3b4186f6b6457e0905f90a35050565b61210d611e6f565b6001805460ff60a01b1916600160a01b1790557f62e78cea01bee320cd4e420270b5ea74000d11b0c9f74754ebdbfc544b05a258611e523390565b600154600160a01b900460ff166107995760405162461bcd60e51b815260206004820152601460248201527314185d5cd8589b194e881b9bdd081c185d5cd95960621b60448201526064016107f2565b5f82815260046020908152604080832060058084528285208686529093529083208054919390926064906121cc90846128bb565b6121d691906128e6565b60098401549091505f816121ea84866128a8565b6121f491906128a8565b60088601546040519192506001600160a01b03169083156108fc029084905f818181858888f1935050505015801561222e573d5f5f3e3d5ffd5b5060018601546040516001600160a01b039091169084156108fc029085905f818181858888f19350505050158015612268573d5f5f3e3d5ffd5b505f8111801561227c575060028501546001105b1561239f5760028501545f90612294906001906128a8565b61229e90836128e6565b90505f5b600287015481101561239c575f8760020182815481106122c4576122c46127e2565b5f9182526020909120015460088901546001600160a01b039182169250168114612393576040516001600160a01b0382169084156108fc029085905f818181858888f1935050505015801561231b573d5f5f3e3d5ffd5b506001600160a01b0381165f9081526006602052604081206002018054859290612346908490612833565b92505081905550806001600160a01b03168a8c7fc0b7709e3c54fc651c6ee4524ae5dd9200593131b8fc47c772de7a315c4cdad08660405161238a91815260200190565b60405180910390a45b506001016122a2565b50505b505050600a909101805460ff1916600117905550505050565b5f602082840312156123c8575f5ffd5b5035919050565b602080825282518282018190525f918401906040840190835b8181101561240f5783516001600160a01b03168352602093840193909201916001016123e8565b509095945050505050565b67ffffffffffffffff81168114610d8c575f5ffd5b6001600160a01b0381168114610d8c575f5ffd5b5f5f5f60608486031215612455575f5ffd5b83356124608161241a565b925060208401356124708161242f565b929592945050506040919091013590565b5f5f60408385031215612492575f5ffd5b50508035926020909101359150565b5f602082840312156124b1575f5ffd5b81356124bc8161241a565b9392505050565b5f602082840312156124d3575f5ffd5b81356124bc8161242f565b602080825282511515828201528281015160a06040840152805160c084018190525f929190910190829060e08501905b80831015612531578351825260208201915060208401935060018301925061250e565b506040860151606086015260608601516080860152608086015160a086015280935050505092915050565b5f81518084528060208401602086015e5f602082860101526020601f19601f83011685010191505092915050565b8a81526001600160a01b038a166020820152610140604082018190525f906125b49083018b61255c565b606083019990995250608081019690965260a086019490945260c0850192909252151560e0840152610100830152610120909101529392505050565b602081525f6124bc602083018461255c565b5f8151808452602084019350602083015f5b8281101561263b5781516001600160a01b0316865260209586019590910190600101612614565b5093949350505050565b60208152815160208201525f602083015161266b60408401826001600160a01b03169052565b506040830151610160606084015261268761018084018261255c565b905060608401516080840152608084015160a084015260a084015160c084015260c084015160e084015260e0840151601f19848303016101008501526126cd8282612602565b9150506101008401516126e561012085018215159052565b506101208401516101408401526101408401516101608401528091505092915050565b634e487b7160e01b5f52604160045260245ffd5b5f5f5f5f6080858703121561272f575f5ffd5b843567ffffffffffffffff811115612745575f5ffd5b8501601f81018713612755575f5ffd5b803567ffffffffffffffff81111561276f5761276f612708565b604051601f8201601f19908116603f0116810167ffffffffffffffff8111828210171561279e5761279e612708565b6040528181528282016020018910156127b5575f5ffd5b816020840160208301375f6020928201830152989087013597506040870135966060013595509350505050565b634e487b7160e01b5f52603260045260245ffd5b6020808252600f908201526e4e6f20616374697665206379636c6560881b604082015260600190565b634e487b7160e01b5f52601160045260245ffd5b808201808211156128465761284661281f565b92915050565b5f6020828403121561285c575f5ffd5b81516124bc8161242f565b5f60208284031215612877575f5ffd5b81516001600160801b03811681146124bc575f5ffd5b5f6020828403121561289d575f5ffd5b81516124bc8161241a565b818103818111156128465761284661281f565b80820281158282048414176128465761284661281f565b634e487b7160e01b5f52601260045260245ffd5b5f826128f4576128f46128d2565b500490565b5f6001820161290a5761290a61281f565b5060010190565b600181811c9082168061292557607f821691505b60208210810361294357634e487b7160e01b5f52602260045260245ffd5b50919050565b601f82111561299057805f5260205f20601f840160051c8101602085101561296e5750805b601f840160051c820191505b8181101561298d575f815560010161297a565b50505b505050565b815167ffffffffffffffff8111156129af576129af612708565b6129c3816129bd8454612911565b84612949565b6020601f8211600181146129f5575f83156129de5750848201515b5f19600385901b1c1916600184901b17845561298d565b5f84815260208120601f198516915b82811015612a245787850151825560209485019460019092019101612a04565b5084821015612a4157868401515f19600387901b60f8161c191681555b50505050600190811b01905550565b5f82612a5e57612a5e6128d2565b50069056fea2646970667358221220b582e215605fcaca5bd48bc90835fa137741690652111530636f25556e9d0dc364736f6c634300081c0033a2646970667358221220444a952d0f7ac31be16002f76a613949d41873221e30ac096bc5701ebd143cfd64736f6c634300081c0033",
  "linkReferences": {},
  "deployedLinkReferences": {},
  "immutableReferences": {
    "970": [
      {
        "length": 32,
        "start": 190
      },
      {
        "length": 32,
        "start": 411
      }
    ]
  },
  "inputSourceName": "project/contracts/ChitChainFactory.sol",
  "buildInfoId": "solc-0_8_28-c335f8abfdbf9fc25d3a0f11e3a3ff8f89ccfd88"
}