{
  "_format": "hh3-artifact-1",
  "contractName": "ChitChainInsurance",
  "sourceName": "contracts/ChitChainInsurance.sol",
  "abi": [
    {
      "anonymous": false,
      "inputs": [
        {
          "indexed": true,
          "internalType": "uint256",
          "name": "schemeId",
          "type": "uint256"
        },
        {
          "indexed": true,
          "internalType": "address",
          "name": "claimant",
          "type": "address"
        },
        {
          "indexed": false,
          "internalType": "uint256",
          "name": "amount",
          "type": "uint256"
        }
      ],
      "name": "ClaimPaid",
      "type": "event"
    },
    {
      "anonymous": false,
      "inputs": [
        {
          "indexed": true,
          "internalType": "uint256",
          "name": "schemeId",
          "type": "uint256"
        },
        {
          "indexed": true,
          "internalType": "address",
          "name": "contributor",
          "type": "address"
        },
        {
          "indexed": false,
          "internalType": "uint256",
          "name": "amount",
          "type": "uint256"
        }
      ],
      "name": "InsuranceContribution",
      "type": "event"
    },
    {
      "anonymous": false,
      "inputs": [
        {
          "indexed": true,
          "internalType": "address",
          "name": "previousOwner",
          "type": "address"
        },
        {
          "indexed": true,
          "internalType": "address",
          "name": "newOwner",
          "type": "address"
        }
      ],
      "name": "OwnershipTransferred",
      "type": "event"
    },
    {
      "inputs": [],
      "name": "INSURANCE_FEE_PERCENT",
      "outputs": [
        {
          "internalType": "uint256",
          "name": "",
          "type": "uint256"
        }
      ],
      "stateMutability": "view",
      "type": "function"
    },
    {
      "inputs": [
        {
          "internalType": "address",
          "name": "_scheme",
          "type": "address"
        }
      ],
      "name": "authorizeScheme",
      "outputs": [],
      "stateMutability": "nonpayable",
      "type": "function"
    },
    {
      "inputs": [
        {
          "internalType": "address",
          "name": "",
          "type": "address"
        }
      ],
      "name": "authorizedSchemes",
      "outputs": [
        {
          "internalType": "bool",
          "name": "",
          "type": "bool"
        }
      ],
      "stateMutability": "view",
      "type": "function"
    },
    {
      "inputs": [
        {
          "internalType": "uint256",
          "name": "_schemeId",
          "type": "uint256"
        },
        {
          "internalType": "address",
          "name": "_contributor",
          "type": "address"
        }
      ],
      "name": "contributeToInsurance",
      "outputs": [],
      "stateMutability": "payable",
      "type": "function"
    },
    {
      "inputs": [
        {
          "internalType": "uint256",
          "name": "_schemeId",
          "type": "uint256"
        },
        {
          "internalType": "uint256",
          "name": "_amount",
          "type": "uint256"
        },
        {
          "internalType": "address",
          "name": "_claimant",
          "type": "address"
        }
      ],
      "name": "fileClaim",
      "outputs": [],
      "stateMutability": "nonpayable",
      "type": "function"
    },
    {
      "inputs": [
        {
          "internalType": "uint256",
          "name": "_schemeId",
          "type": "uint256"
        }
      ],
      "name": "getInsuranceInfo",
      "outputs": [
        {
          "internalType": "uint256",
          "name": "totalPool",
          "type": "uint256"
        },
        {
          "internalType": "uint256",
          "name": "claimsPool",
          "type": "uint256"
        },
        {
          "internalType": "uint256",
          "name": "availableFunds",
          "type": "uint256"
        }
      ],
      "stateMutability": "view",
      "type": "function"
    },
    {
      "inputs": [
        {
          "internalType": "uint256",
          "name": "",
          "type": "uint256"
        }
      ],
      "name": "insurancePools",
      "outputs": [
        {
          "internalType": "uint256",
          "name": "totalPool",
          "type": "uint256"
        },
        {
          "internalType": "uint256",
          "name": "claimsPool",
          "type": "uint256"
        }
      ],
      "stateMutability": "view",
      "type": "function"
    },
    {
      "inputs": [],
      "name": "owner",
      "outputs": [
        {
          "internalType": "address",
          "name": "",
          "type": "address"
        }
      ],
      "stateMutability": "view",
      "type": "function"
    },
    {
      "inputs": [],
      "name": "renounceOwnership",
      "outputs": [],
      "stateMutability": "nonpayable",
      "type": "function"
    },
    {
      "inputs": [
        {
          "internalType": "address",
          "name": "newOwner",
          "type": "address"
        }
      ],
      "name": "transferOwnership",
      "outputs": [],
      "stateMutability": "nonpayable",
      "type": "function"
    }
  ],
  "bytecode": "0x6080604052348015600e575f5ffd5b50601633601e565b60018055606d565b5f80546001600160a01b038381166001600160a01b0319831681178455604051919092169283917f8be0079c531659141344cd1fd0a4f28419497f9722a3daafe3b4186f6b6457e09190a35050565b6108098061007a5f395ff3fe60806040526004361061008f575f3560e01c806397962e271161005757806397962e2714610144578063a11d070914610166578063c5123133146101a0578063d765ca16146101bf578063f2fde38b14610206575f5ffd5b806301a163a41461009357806302b3424b146100b4578063715018a6146100f75780638d7c253f1461010b5780638da5cb5b1461011e575b5f5ffd5b34801561009e575f5ffd5b506100b26100ad366004610700565b610225565b005b3480156100bf575f5ffd5b506100e26100ce366004610732565b60036020525f908152604090205460ff1681565b60405190151581526020015b60405180910390f35b348015610102575f5ffd5b506100b26103e4565b6100b2610119366004610752565b6103f7565b348015610129575f5ffd5b505f546040516001600160a01b0390911681526020016100ee565b34801561014f575f5ffd5b50610158600181565b6040519081526020016100ee565b348015610171575f5ffd5b5061018561018036600461077c565b61050e565b604080519384526020840192909252908201526060016100ee565b3480156101ab575f5ffd5b506100b26101ba366004610732565b610540565b3480156101ca575f5ffd5b506101f16101d936600461077c565b60026020525f90815260409020805460019091015482565b604080519283526020830191909152016100ee565b348015610211575f5ffd5b506100b2610220366004610732565b61056b565b335f9081526003602052604090205460ff166102795760405162461bcd60e51b815260206004820152600e60248201526d139bdd08185d5d1a1bdc9a5e995960921b60448201526064015b60405180910390fd5b6102816105e4565b5f8381526002602090815260408083206001600160a01b0385168452600381019092529091205460ff166102e55760405162461bcd60e51b815260206004820152600b60248201526a139bdd0818dbdd995c995960aa1b6044820152606401610270565b6001810154815484916102f7916107a7565b10156103455760405162461bcd60e51b815260206004820152601c60248201527f496e73756666696369656e7420696e737572616e63652066756e6473000000006044820152606401610270565b82816001015f82825461035891906107c0565b90915550506040516001600160a01b0383169084156108fc029085905f818181858888f19350505050158015610390573d5f5f3e3d5ffd5b50816001600160a01b0316847faf3c8fdd75d667f71d36d7840b8ef9086c516c9b047ad6a83a5a66151342123a856040516103cd91815260200190565b60405180910390a3506103df60018055565b505050565b6103ec61063d565b6103f55f610696565b565b335f9081526003602052604090205460ff166104465760405162461bcd60e51b815260206004820152600e60248201526d139bdd08185d5d1a1bdc9a5e995960921b6044820152606401610270565b61044e6105e4565b5f8281526002602081815260408084206001600160a01b038616855292830190915282208054919234926104839084906107c0565b90915550508054349082905f9061049b9084906107c0565b90915550506001600160a01b0382165f81815260038301602052604090819020805460ff191660011790555184907f67ebb1e254f507fe7e8c782eb78b7d200dcf39923854f79d394745b80a6c468a906104f89034815260200190565b60405180910390a35061050a60018055565b5050565b5f8181526002602052604081208054600182015483928392909161053281836107a7565b935093509350509193909250565b61054861063d565b6001600160a01b03165f908152600360205260409020805460ff19166001179055565b61057361063d565b6001600160a01b0381166105d85760405162461bcd60e51b815260206004820152602660248201527f4f776e61626c653a206e6577206f776e657220697320746865207a65726f206160448201526564647265737360d01b6064820152608401610270565b6105e181610696565b50565b6002600154036106365760405162461bcd60e51b815260206004820152601f60248201527f5265656e7472616e637947756172643a207265656e7472616e742063616c6c006044820152606401610270565b6002600155565b5f546001600160a01b031633146103f55760405162461bcd60e51b815260206004820181905260248201527f4f776e61626c653a2063616c6c6572206973206e6f7420746865206f776e65726044820152606401610270565b5f80546001600160a01b038381166001600160a01b0319831681178455604051919092169283917f8be0079c531659141344cd1fd0a4f28419497f9722a3daafe3b4186f6b6457e09190a35050565b80356001600160a01b03811681146106fb575f5ffd5b919050565b5f5f5f60608486031215610712575f5ffd5b8335925060208401359150610729604085016106e5565b90509250925092565b5f60208284031215610742575f5ffd5b61074b826106e5565b9392505050565b5f5f60408385031215610763575f5ffd5b82359150610773602084016106e5565b90509250929050565b5f6020828403121561078c575f5ffd5b5035919050565b634e487b7160e01b5f52601160045260245ffd5b818103818111156107ba576107ba610793565b92915050565b808201808211156107ba576107ba61079356fea26469706673582212206e940896382a54ce54a818ad373a0df8406cedb6f58f8796202d61f2c1097d8a64736f6c634300081c0033",
  "linkReferences": {},
  "deployedLinkReferences": {},
  "immutableReferences": {},
  "inputSourceName": "project/contracts/ChitChainInsurance.sol",
  "buildInfoId": "solc-0_8_28-8fcf53c193f8ef5aa19d2c68e9e2ee2369100154"
}