{
  "_format": "hh3-artifact-1",
  "contractName": "ChitChainRegistry",
  "sourceName": "contracts/ChitChainRegistry.sol",
  "abi": [
    {
      "anonymous": false,
      "inputs": [
        {
          "indexed": true,
          "internalType": "address",
          "name": "previousOwner",
          "type": "address"
        },
        {
          "indexed": true,
          "internalType": "address",
          "name": "newOwner",
          "type": "address"
        }
      ],
      "name": "OwnershipTransferred",
      "type": "event"
    },
    {
      "anonymous": false,
      "inputs": [
        {
          "indexed": true,
          "internalType": "address",
          "name": "scheme",
          "type": "address"
        }
      ],
      "name": "SchemeRegistered",
      "type": "event"
    },
    {
      "anonymous": false,
      "inputs": [
        {
          "indexed": false,
          "internalType": "uint256",
          "name": "totalSchemes",
          "type": "uint256"
        },
        {
          "indexed": false,
          "internalType": "uint256",
          "name": "totalUsers",
          "type": "uint256"
        },
        {
          "indexed": false,
          "internalType": "uint256",
          "name": "tvl",
          "type": "uint256"
        }
      ],
      "name": "StatsUpdated",
      "type": "event"
    },
    {
      "inputs": [
        {
          "internalType": "uint256",
          "name": "",
          "type": "uint256"
        }
      ],
      "name": "allSchemes",
      "outputs": [
        {
          "internalType": "address",
          "name": "",
          "type": "address"
        }
      ],
      "stateMutability": "view",
      "type": "function"
    },
    {
      "inputs": [],
      "name": "getAllSchemes",
      "outputs": [
        {
          "internalType": "address[]",
          "name": "",
          "type": "address[]"
        }
      ],
      "stateMutability": "view",
      "type": "function"
    },
    {
      "inputs": [],
      "name": "owner",
      "outputs": [
        {
          "internalType": "address",
          "name": "",
          "type": "address"
        }
      ],
      "stateMutability": "view",
      "type": "function"
    },
    {
      "inputs": [
        {
          "internalType": "address",
          "name": "_scheme",
          "type": "address"
        }
      ],
      "name": "registerScheme",
      "outputs": [],
      "stateMutability": "nonpayable",
      "type": "function"
    },
    {
      "inputs": [
        {
          "internalType": "address",
          "name": "",
          "type": "address"
        }
      ],
      "name": "registeredSchemes",
      "outputs": [
        {
          "internalType": "bool",
          "name": "",
          "type": "bool"
        }
      ],
      "stateMutability": "view",
      "type": "function"
    },
    {
      "inputs": [],
      "name": "renounceOwnership",
      "outputs": [],
      "stateMutability": "nonpayable",
      "type": "function"
    },
    {
      "inputs": [],
      "name": "stats",
      "outputs": [
        {
          "internalType": "uint256",
          "name": "totalSchemes",
          "type": "uint256"
        },
        {
          "internalType": "uint256",
          "name": "totalUsers",
          "type": "uint256"
        },
        {
          "internalType": "uint256",
          "name": "totalValueLocked",
          "type": "uint256"
        },
        {
          "internalType": "uint256",
          "name": "totalCompletedCycles",
          "type": "uint256"
        }
      ],
      "stateMutability": "view",
      "type": "function"
    },
    {
      "inputs": [
        {
          "internalType": "address",
          "name": "newOwner",
          "type": "address"
        }
      ],
      "name": "transferOwnership",
      "outputs": [],
      "stateMutability": "nonpayable",
      "type": "function"
    },
    {
      "inputs": [
        {
          "internalType": "uint256",
          "name": "_totalUsers",
          "type": "uint256"
        },
        {
          "internalType": "uint256",
          "name": "_totalValueLocked",
          "type": "uint256"
        },
        {
          "internalType": "uint256",
          "name": "_completedCycles",
          "type": "uint256"
        }
      ],
      "name": "updateStats",
      "outputs": [],
      "stateMutability": "nonpayable",
      "type": "function"
    }
  ],
  "bytecode": "0x6080604052348015600e575f5ffd5b50601633601a565b6069565b5f80546001600160a01b038381166001600160a01b0319831681178455604051919092169283917f8be0079c531659141344cd1fd0a4f28419497f9722a3daafe3b4186f6b6457e09190a35050565b61062c806100765f395ff3fe608060405234801561000f575f5ffd5b5060043610610090575f3560e01c8063a817a0a411610063578063a817a0a4146100f1578063af6d279114610106578063c5dc84cb14610119578063d80528ae1461014b578063f2fde38b14610181575f5ffd5b80635b0581051461009457806361ab8904146100c4578063715018a6146100d95780638da5cb5b146100e1575b5f5ffd5b6100a76100a236600461051a565b610194565b6040516001600160a01b0390911681526020015b60405180910390f35b6100d76100d2366004610531565b6101bc565b005b6100d7610276565b5f546001600160a01b03166100a7565b6100f9610289565b6040516100bb919061055a565b6100d76101143660046105a5565b6102e9565b61013b6101273660046105a5565b60016020525f908152604090205460ff1681565b60405190151581526020016100bb565b6003546004546005546006546101619392919084565b6040805194855260208501939093529183015260608201526080016100bb565b6100d761018f3660046105a5565b6103f9565b600281815481106101a3575f80fd5b5f918252602090912001546001600160a01b0316905081565b335f9081526001602052604090205460ff1661021f5760405162461bcd60e51b815260206004820152601760248201527f4e6f742061207265676973746572656420736368656d6500000000000000000060448201526064015b60405180910390fd5b600483905560058290556006819055600354604080519182526020820185905281018390527f10239bdd5c74b679554af458cf0f10870ab12e158e848cdac9ff21471bd161379060600160405180910390a1505050565b61027e610472565b6102875f6104cb565b565b606060028054806020026020016040519081016040528092919081815260200182805480156102df57602002820191905f5260205f20905b81546001600160a01b031681526001909101906020018083116102c1575b5050505050905090565b6102f1610472565b6001600160a01b0381165f9081526001602052604090205460ff161561034e5760405162461bcd60e51b8152602060048201526012602482015271105b1c9958591e481c9959da5cdd195c995960721b6044820152606401610216565b6001600160a01b0381165f8181526001602081905260408220805460ff19168217905560028054918201815582527f405787fa12a823e0f2b7631cc41b3ba8828b3321ca811111fa75cd3aa3bb5ace0180546001600160a01b03191690921790915560038054916103be836105d2565b90915550506040516001600160a01b038216907f1383678489023835b30f3aaa7c35acc5d990d463afc10371b92eceb02f072c1c905f90a250565b610401610472565b6001600160a01b0381166104665760405162461bcd60e51b815260206004820152602660248201527f4f776e61626c653a206e6577206f776e657220697320746865207a65726f206160448201526564647265737360d01b6064820152608401610216565b61046f816104cb565b50565b5f546001600160a01b031633146102875760405162461bcd60e51b815260206004820181905260248201527f4f776e61626c653a2063616c6c6572206973206e6f7420746865206f776e65726044820152606401610216565b5f80546001600160a01b038381166001600160a01b0319831681178455604051919092169283917f8be0079c531659141344cd1fd0a4f28419497f9722a3daafe3b4186f6b6457e09190a35050565b5f6020828403121561052a575f5ffd5b5035919050565b5f5f5f60608486031215610543575f5ffd5b505081359360208301359350604090920135919050565b602080825282518282018190525f918401906040840190835b8181101561059a5783516001600160a01b0316835260209384019390920191600101610573565b509095945050505050565b5f602082840312156105b5575f5ffd5b81356001600160a01b03811681146105cb575f5ffd5b9392505050565b5f600182016105ef57634e487b7160e01b5f52601160045260245ffd5b506001019056fea2646970667358221220532374d6351f8d44cadb9e18c315d8d84eb3033e20762cc7c9cf164d662e495e64736f6c634300081c0033",
  "linkReferences": {},
  "deployedLinkReferences": {},
  "immutableReferences": {},
  "inputSourceName": "project/contracts/ChitChainRegistry.sol",
  "buildInfoId": "solc-0_8_28-5ef08d923fe36c3950a0d3c091f24525bac3654a"
}